S0110000626F6F746C6F616465722E733337B8
S3150FE1080020110020F535E10FDF0FE10F612FE10F29
S3150FE10810E70FE10FEF1BE10FD31DE10F0000000022
S3150FE1082000000000000000004008E10F0B20E10F7F
S3150FE10830FB20E10F00000000CB33E10F8B35E10F19
S3150FE1084007B0CD5E0100000000000101402F00005E
S3150FE108500000000000001000F0001000ED35E10F80
S3150FE10860F135E10F5531E10F1336E10F4136E10F66
S3150FE108700000000038B5044600F08FFA182C054643
S3150FE1088005D1182000F089FA182000F086FA2846DB
S3150FE1089032BD80B5684600F0FBFA9DF800003128BD
S3150FE108A002D0322802D003E0022002BD052002BDAC
S3150FE108B0002002BD0A28ACBF37303030C0B27047D6
S3150FE108C000F0CCB910B511480FF2C42192B000680F
S3150FE108D084686846482200F057FB200E00F055F970
S3150FE108E08DF81400200C00F050F98DF8160004F085
S3150FE108F00F00FFF7DFFF8DF818000122452168464B
S3150FE1090000F018FA002012B010BD00002808E10F20
S3150FE10910ADF5027D03A8242100F062FB00F064FB34
S3150FE1092000240FF228350FF2B0260FF2DC2B0FF26F
S3150FE10930BC2740F6071825E0002C04BF9DF87D0182
S3150FE10940012809D10095802360AA03A939A800F0EF
S3150FE10950F7FC040040F081809DF80400182801D1CE
S3150FE109604FF006099DF80400FFF784FFB9F1060F72
S3150FE10970FCD8DFE809F005070D283DF47D00F5E722
S3150FE10980FFF7A0FFFFF785FF81464FF03C0AEDE742
S3150FE1099001221121304600F0CDF90CAA27A939A879
S3150FE109A000F086FC242103A800F01AFB01210520A3
S3150FE109B000F03CFB00F012FA18B10121002000F023
S3150FE109C070FA01F0A9F84320FFF754FF00214FF425
S3150FE109D07A7000F02BFB00F001FA18B900F03CFB3E
S3150FE109E00028F8D000F0FAF900283AD04FF00409C0
S3150FE109F05FA88521401C01F0F7F800F0EFF9002818
S3150FE10A00FBD04FF47A70009001235FA802AA01216F
S3150FE10A10401C00F000FA9DF87D0101280ED140F649
S3150FE10A20B8300090012302AA84210DF5BF7000F0C2
S3150FE10A30F2F90299842908BF0028D9D15FA801A943
S3150FE10A40401C01F06EF8044644457FF475AF00F0A3
S3150FE10A5096F84FF006097FF47FAF18208DF8040062
S3150FE10A607EE7BAF1010AAED11820FFF703FF87E758
S3150FE10A700121002000F015FA01210A2000F0D6FA33
S3150FE10A809DF80400062808BF444505D101221B2124
S3150FE10A90384600F04FF973E701221A21584600F064
S3150FE10AA049F9A4F51060B0F5E06F04D201221821DF
S3150FE10AB00FF2701003E0012210210FF2801000F007
S3150FE10AC039F940F60111601A20D0401E20D0401EA0
S3150FE10AD018D0401E18D0401E1CD0401E1CD040F22C
S3150FE10AE0FB61401A22D0C01E22D0401E18D0401EF4
S3150FE10AF01AD0401E1AD0401E14D0401E0ED0401EF2
S3150FE10B0014D018E0212014E0222012E0232010E077
S3150FE10B1024200EE025200CE027200AE0412008E002
S3150FE10B20432006E0442004E0452002E04F2000E0A8
S3150FE10B3050208DF804009DF804000009FFF7BAFE76
S3150FE10B4000F02BF99DF8040000F01FF800F025F9ED
S3150FE10B500D2000F022F90A2000F01FF910E700F04E
S3150FE10B600EF809D09DF80C00002814BF40F20920B9
S3150FE10B7040F2012001F048F840F20320FAE79DF830
S3150FE10B800E009DF80F100842704700F00F0091E636
S3150FE10B900D0A4765636B6F20426F6F746C6F61640B
S3150FE10BA065722076582E592E410D0A312E20757019
S3150FE10BB06C6F61642067626C0D0A322E2072756E5E
S3150FE10BC00D0A332E2065626C20696E666F0D0A423F
S3150FE10BD04C203E20000000000D0A626567696E2019
S3150FE10BE075706C6F61640D0A000000000D0A5365A4
S3150FE10BF07269616C2075706C6F616420636F6D70E3
S3150FE10C006C6574650D0A00000D0A53657269616CB6
S3150FE10C102075706C6F61642061626F727465640D2B
S3150FE10C200A0000000D0A584D6F64656D20626C6F06
S3150FE10C30636B206572726F72203078000D0A6669F8
S3150FE10C406C65206572726F722030780000000000CB
S3150FE10C50A130E10F00000000EF30E10F10B50121E7
S3150FE10C609C489D4C01F016F801219C4801F012F8C1
S3150FE10C7001219B4801F00EF801219A4801F00AF88B
S3150FE10C8040F6AA60E060002100202060606641F234
S3150FE10C9005006060A1606161E1649349A16400218F
S3150FE10CA06167A167E1676060206820608F4800682F
S3150FE10CB001280CBF4FF4957040F27B20C0006061B4
S3150FE10CC001230422002001F031F801230122012141
S3150FE10CD0002001F02BF80020A067012303206067B5
S3150FE10CE004220521002001F021F80520E0604FF0F4
S3150FE10CF0E0617F48016000210162C1624163C16623
S3150FE10D004FF440227B490A6000228A604A600FF263
S3150FE10D101822920892008A61774A0A6300228A634F
S3150FE10D204A630321754A11600121C16302207449A7
S3150FE10D30086010BD70B50E46802E0546144602D3E7
S3150FE10D4041F2031070BD00F038F810B941F20620F8
S3150FE10D5070BD304600266B4902E0AA5D8A55761CC6
S3150FE10D608642FAD3D1F88020401E60F30E12C1F805
S3150FE10D70802001F18000800863498000086002202D
S3150FE10D80624908603CB100F018F80028FBD06048D2
S3150FE10D9000688006FBD5002070BD10B5044600F053
S3150FE10DA00CF80028FBD05A4801684906FBD5446286
S3150FE10DB001688906FCD5002010BD56485649826860
S3150FE10DC0920702D50220086003E00068800703D48A
S3150FE10DD00220886001207047002070474F48006865
S3150FE10DE040F20111884208BF002007D040F20221EC
S3150FE10DF088420EBF4FF480704949401A4949096844
S3150FE10E00814201D10020704701D2401A7047C1F5E6
S3150FE10E10007140187047F8B504460E4615468BB17A
S3150FE10E20069F2FB100F0E0F80021384600F0FEF8FA
S3150FE10E30FFF7D4FFB04205D2002FF9D000F00CF93D
S3150FE10E400028F5D0FFF7CAFFB04202D2FFF7C6FF7F
S3150FE10E50064600202A49334A314B03E00027176043
S3150FE10E6002270F60B0420FD2176813F807C004F8D4
S3150FE10E7000C0401C7F1CB7F5007F1760EED0B7F5B9
S3150FE10E80807FEFD10127ECE705B128600020F2BDA5
S3150FE10E9080B500210091012300220121FFF7BBFF5D
S3150FE10EA002BD1D4A08B10220106081B10120106018
S3150FE10EB090600FF2740115481A4A89088900C165D5
S3150FE10EC0002111600121016002200D490860002017
S3150FE10ED07047000040410500000001400035080061
S3150FE10EE00055080000420400F9FF010094400E404E
S3150FE10EF000200E4080200E4001000C0028200E44F9
S3150FE10F0008200E4680000020C8200E403C200E40EF
S3150FE10F101000014020200E4020200E4494200E4068
S3150FE10F202011002028130020F00F10031C000140B0
S3150FE10F30201100201300000009000000000100004D
S3150FE10F400202000013000000F00F10031C00014025
S3150FE10F50201200201300000009000000000200002B
S3150FE10F6001010000D3FFFFFF62B38B0708D0521ECA
S3150FE10F7011F8013B00F8013B00F024808B07F6D115
S3150FE10F80830740F0208000BF103A07D330B4B1E8B1
S3150FE10F903810103AA0E83810F9D230BC530724BF05
S3150FE10FA0B1E80810A0E8081044BF51F8043B40F837
S3150FE10FB0043BD20724BF31F8022B20F8022B44BFA2
S3150FE10FC00B7803707047083A07D3B1E80810083A6F
S3150FE10FD040F8043B40F804CBF7D25307E4E7FEE7CA
S3150FE10FE0002200F0DDBEFEE71FB52648016841F499
S3150FE10FF0801101606C462448016841F001010160EE
S3150FE1100000F0E8FE4FF47A71B0FBF1F01F49800A68
S3150FE1101048600FF288000FC884E80F000A208DF8A8
S3150FE11020020069461A4800F013FF1FBD30B5194A91
S3150FE11030164C1369656805FB003060809BB26088CA
S3150FE110409842AD41ED0F257011B111698142FCD185
S3150FE1105001201060506030BD0C490F480A78002A14
S3150FE11060026803D0D20705D400207047D20701D515
S3150FE11070012070478069498888428041C043C00F8B
S3150FE110807047000000400E40C0400E402013002084
S3150FE1109000800140148001400C80014001000000F6
S3150FE110A000000000000000000000000030B59A4289
S3150FE110B03FBF9C1A456C2C19412C01D3002030BD42
S3150FE110C0846C456C2C1904F03F0404448D5C257146
S3150FE110D0521C446C641C9A424464F1D3012030BD26
S3150FE110E070B5059D00240CE0866C064436790E55E5
S3150FE110F0641C866C761C06F03F068664466C761E8B
S3150FE111004664466C0EB1AC42EED3049805E0965DAB
S3150FE111100E55641C1E68761C1E601E68864238BF1B
S3150FE11120AC42F4D3AC4201D1012070BD002070BDB9
S3150FE11130406C081870472DE9F0431646044683B014
S3150FE1114030680F4699460B9DA9EB000100F0C5FCEF
S3150FE11150A84208D232684B4639462046FFF7A6FF2A
S3150FE1116068B1002038E0DDF828800195CDF80090D0
S3150FE1117033463A4641462046FFF7B2FF20B91020E3
S3150FE11180207041F2020027E004F1900729463A6800
S3150FE11190404600F0BBFE38600C9820B1206D2A4620
S3150FE111A0414600F0CBFE0D9838B1787978B1E06C15
S3150FE111B02B464246414600F0E5FE787938B1206E7E
S3150FE111C0E16D28182066884224BF00207871A06D52
S3150FE111D02818A06541F20300BDE8FE832DE9F04131
S3150FE111E0074607F1950486B0A078002814BF0425B9
S3150FE111F00825002003900290019504A8009041F282
S3150FE1120003083846FFF797FF404549D120784C3719
S3150FE1121038B100F048F838682B4604AA04A900F063
S3150FE11220B1FE0C9EA17804A871B141789DF810200A
S3150FE1123042EA012149BA89B23160C178807840EA40
S3150FE11240012040BA80B218E08278C178120442EAEE
S3150FE112500161427841EA02219DF810201143316084
S3150FE112609DF816209DF817100079120442EA0161E4
S3150FE112709DF8152041EA022108437060207850B9A4
S3150FE112803068DFF8E01788421CBFDFF8DC178842C9
S3150FE1129001D000F008F87068B8600020F8604046A9
S3150FE112A006B0BDE8F08178682A4604A900F046BE8B
S3150FE112B070B50446002020706064A0640D4604F109
S3150FE112C090000021017141718171C17116464FF094
S3150FE112D0FF31016000206066A066E066FF221821FB
S3150FE112E004F1700000F05EFEFF22042104F1880094
S3150FE112F000F058FEFF22042104F18C0000F052FEAB
S3150FE11300E56426650020C04640B10020C04610B90D
S3150FE113100020C04610B11020207007E00020C04623
S3150FE1132000B11DB10020C04618B116B941F20B004C
S3150FE1133070BD16B1206D00F0F7FD002070BD000005
S3150FE113402DE9F24F98B004460020049008A8229F99
S3150FE11350079091469A4641F2030808AD14E000F072
S3150FE11360CEFB404555D100F0A1FB41EA000600F066
S3150FE11370A8FB00B136BA606D052828BF6666A06D79
S3150FE113800428ECD3092020700498504580F065833A
S3150FE1139020781028F8D8DFE810F013003900F500AF
S3150FE113A04501C301F801A701F8011200F801120086
S3150FE113B0BC025D031B03330338035D03E4E7DEE79A
S3150FE113C00020C04650B199F8010099F8001051EA92
S3150FE113D0002003D104F190010120C87100F075FBE3
S3150FE113E0404516D10698DFF8841660650020A065A2
S3150FE113F00598884208BF0220C5D0002840F0B88181
S3150FE1140000F05FFB002841D00320BCE700F05DFB55
S3150FE11410404540F0238304F19000807920B105988F
S3150FE11420DFF84416884240E004F190000079002885
S3150FE114303DD004F190004079C8BB0598DFF82C1632
S3150FE1144088421CBFDFF8281688421FD0DFF8241622
S3150FE1145088421CBFDFF82016884217D0DFF8041642
S3150FE11460884200F08180DFF81416884213D0DFF846
S3150FE11470101688420DD0DFF8F015884212D0DFF84A
S3150FE11480041688421CBFDFF80016884200F070810F
S3150FE1149040E00D2077E70E202070606DE0650020BB
S3150FE114A0206671E70020C04600285BD12BE000F0F3
S3150FE114B008FB0028059830D040F2FE21401A24D0CF
S3150FE114C04FF20A31401A08D040F2FC51401A0ED0C1
S3150FE114D0FF3807D0FE3818D01CE0DFF89C050590E1
S3150FE114E0072050E7DFF89C0505900A204BE7DFF868
S3150FE114F0780505900020C046002802BF04F1900050
S3150FE11500407900282ED10B203DE7DFF87C050590C9
S3150FE11510082038E71020207031E0DFF854158842B3
S3150FE115201AD0DFF85015884214D0DFF84C158842EF
S3150FE11530D6D0DFF83015884210D0DFF82C15884267
S3150FE11540D8D0DFF840158842CFD0DFF83C15884276
S3150FE11550DED00BE0042016E7062014E704F1900035
S3150FE115604079002840F004810F200CE7102020700D
S3150FE1157004F19000407910B141F204006EE241F2BC
S3150FE1158008006BE2A06D082880F0628200F0B0FAE5
S3150FE11590082000F086FA00F0A8FA4045F1D1E87884
S3150FE115A00006B0F1407F54D16879297941EA0026E6
S3150FE115B0F00704D504F190010120087102E0002043
S3150FE115C0C04628B90020C0460028DBD0F005D9D4A3
S3150FE115D01020207041F20A0040E2E878A97841EA4A
S3150FE115E0002040BA80B24EF250318842BAD1A97981
S3150FE115F0E879090441EA0060697940EA012029792D
S3150FE11600084300BA6066A97AE87A090441EA0060FC
S3150FE11610697A40EA0120297A084300BAA0664FF0B9
S3150FE11620FF30E066A06D0C2839D200F061FA0C208C
S3150FE1163000F037FA00F059FA40450ED168789DF877
S3150FE11640201041EA002040BA00F47F40B0F5007F58
S3150FE11650C3D01020207041F20900FFE1E16EFF20B7
S3150FE1166000F042FC0146E166FF2000F03DFCE0663A
S3150FE116700146A87800F038FCE0660146E87800F00C
S3150FE1168033FCE066D7F804C0BCF1000F07D03B6826
S3150FE11690606E042208A9E047606E001D6066A06DCA
S3150FE116A0616D884216D20498AAEB000100F015FA93
S3150FE116B00428C0F00581A06DA0F10C0600F01FFA19
S3150FE116C04045CAD1102EC9D0E26E042108A800F018
S3150FE116D01DFCD6E7A16EE06EC943884240F0278133
S3150FE116E0189901204870B3E1606DA16D8142FAD27C
S3150FE116F00190012108A8039102910090534604AA93
S3150FE1170000F0F2F9404537D118981C2208A90830A4
S3150FE11710FFF73AFC189901204870E5E7052020709C
S3150FE11720A06D0828BFF430AE012003900290534616
S3150FE11730082000F0D5F940451ED11899D34A01206A
S3150FE11740087000F0B3F9084318994860D04800686B
S3150FE1175001689142E2D1AA79E979C068120442EAB5
S3150FE1176001616A7941EA02212A7911438142D5D091
S3150FE117701020207041F2010070E13B68A06E324605
S3150FE1178008A9E047A06E3018A066606DA16D814291
S3150FE11790A9D2461A0498042EAAEB00012046C0F0FE
S3150FE117A08A80FFF7C5FC0428C0F08A800498AAEB6B
S3150FE117B000000090412E014628BF402600F08DF92A
S3150FE117C0B04203D2009900F088F90646042E24BFF1
S3150FE117D0B608B600012003900290019608A8009082
S3150FE117E0534604AA00F080F94045C5D12078072871
S3150FE117F004D1D7F808C0BCF1000FBED1C6F1040081
S3150FE11800042E009007D2014608A8FF22801900F0A6
S3150FE11810C9FB009886192078092858D179680029DB
S3150FE1182055D000F0F3FB616E001D7218824221D391
S3150FE1183000F1180399421DD28346884238BF8B4681
S3150FE118409A4288BF1A460192ABEB010108AA1144ED
S3150FE118500091ABEB00000199A1EB0B02009920443B
S3150FE118607030FFF781FB0198A0EB0B010098FF2287
S3150FE1187000F098FB00F0CEFB616E001D884222BF9F
S3150FE118807218031D9A420BD3079A8018A0EB010B2E
S3150FE118900422594604F18800FFF766FB00F0FCF8D5
S3150FE118A03B68606ED7F804C0324608A9E047606E20
S3150FE118B03018606669E7FFF73BFCB042BFF476AFDD
S3150FE118C0049A534649462046FFF7F0FBC5E0052843
S3150FE118D0F0D1F8680028EDD0E06E05280ED2311868
S3150FE118E007290BD30799091DA1EB000B04225946D2
S3150FE118F004F18C00FFF738FB00F0CEF83B68E06EA1
S3150FE11900D7F80CC0324608A9E047E06E3018E0661A
S3150FE119103BE70020039002905346042000F0E0F8E5
S3150FE11920404508D1D4F890005A49884204D0102096
S3150FE11930207041F2050091E00020C04618B91899D0
S3150FE119400120C87003E01898C07800283AD0E06EFD
S3150FE1195090B100F0B6F878B9D7F80C905FEA0900C4
S3150FE119600AD0042204F18C0108A8FFF7FDFA3B68BF
S3150FE11970042208A90420C847606E00281CBF7868B6
S3150FE1198000281FD0182204F1700108A8FFF7ECFA1E
S3150FE1199000F03CFB3B68D7F80490182208A9001D1C
S3150FE119A0C84700F037FB05000CD0042204F188018B
S3150FE119B008A8FFF7D9FA3B68D7F80490042208A9DB
S3150FE119C0281DC8471899012088700C20207044E023
S3150FE119D0A06D10283CD200F08BF8102000F061F8D2
S3150FE119E000F083F8404539D100F028FB80210090C3
S3150FE119F001910123E06C09AA022100F0A4FAE7E7BD
S3150FE11A0004F190010120487122E004F19000807900
S3150FE11A10F0B9039002905346402000F061F840453B
S3150FE11A201CD1206D00F08CFA206D10AA08A900F0E8
S3150FE11A300DFB38B118990020C8701020207041F2C3
S3150FE11A4006000BE018990120C87004F19001887126
S3150FE11A50012098E441F2070000E0002019B0BDE84B
S3150FE11A60F08F0000F70A0AF7FC0404FCEB17A60354
S3150FE11A70F40A0AF4F50909F5F60808F6F90707F97C
S3150FE11A80FA0606FAFD0303FDFE0101FEAD1007B0EE
S3150FE11A902800E10FE320BBDEFF220421584600F0C8
S3150FE11AA081BA0190494608A800907047A978E8786D
S3150FE11AB0090441EA0060697840EA01209DF82010A7
S3150FE11AC0704704F19000C079704705A8009053461E
S3150FE11AD004AA49462046FFF781BB2046FFF728BBFC
S3150FE11AE0019004AA08A8009049462046FFF723BBB8
S3150FE11AF00020039053460120029004AA704701206B
S3150FE11B000390029053460420019004AA08A800907E
S3150FE11B1049462046FFF70FBB32480021017041705D
S3150FE11B20704770B504460D462078012808D0032882
S3150FE11B304ED0042847D0182818BF432848D04CE088
S3150FE11B40284E7078002860780CD1012805D1707085
S3150FE11B506078A1780818FF2815D01520287040F66F
S3150FE11B60041070BD3178884204D10620287040F602
S3150FE11B70061070BD491CC9B28842E9D015202870FC
S3150FE11B8040F6051070BD00228021E01C00F0A7FA97
S3150FE11B9004F18302010A1378994204D015202870C3
S3150FE11BA040F6021070BD517800F0FF00884204D074
S3150FE11BB01520287040F6011070BD60783070062050
S3150FE11BC02870002070BD0620287040F6071070BD02
S3150FE11BD01820287040F6081070BD1820287040F6BE
S3150FE11BE0031070BD2C130020002200F0DFB9FEE7D1
S3150FE11BF04FF0005108804FF20F00488070470F49B0
S3150FE11C004CF23C30088070474FF0005108804FF29C
S3150FE11C100F0048800A48016821F4E06141F48061D0
S3150FE11C200160BFF34F8F0748074A016801F4E0618E
S3150FE11C3011430160BFF34F8F00BFFDE702000020A4
S3150FE11C4000500E400CED00E00400FA054FF0005095
S3150FE11C504FF20F024188914201D100887047002966
S3150FE11C6004BF0088012802D140F2022070474FF4E9
S3150FE11C7000707047890001EB401000F1844002606B
S3150FE11C807047DFF874104A68D20702D40A68024235
S3150FE11C90FCD1704770B502120C4602F00F0200211B
S3150FE11CA0521E092ADFF8545014D8DFE802F0051462
S3150FE11CB01313071619131C20DFF83850C0F3043637
S3150FE11CC011B10846FFF7DDFF224631462846BDE84A
S3150FE11CD07040CFE770BD1035F0E730350121EDE704
S3150FE11CE038351021EAE740354FF48031E6E7DFF882
S3150FE11CF01050E3E700400E4040410E40B0400E4029
S3150FE11D0050410E403023254A584310440C3000F120
S3150FE11D10806006E03023214A584310440C3000F12D
S3150FE11D20C060012202FA01F101607047F8B504467D
S3150FE11D30164630000D461F4607D0002F204602D02B
S3150FE11D40FFF7E8FF01E0FFF7DDFF30210F22134830
S3150FE11D5011FB04F1082D084405D2AB00416800F0F0
S3150FE11D6015F8416006E0A5F108039B00816800F0D4
S3150FE11D700DF881604EB9002F2946204602D0BDE805
S3150FE11D80F440C7E7BDE8F440BCE7F1BD9A4021EA6C
S3150FE11D90020206FA03F111437047000000A000406A
S3150FE11DA000B500BF130096469446103928BFA0E848
S3150FE11DB00C50FAD85FEA417C28BF0CC048BF40F807
S3150FE11DC0042BC90728BF20F8022B48BF00F8012BC7
S3150FE11DD000BDFEE70F4A1049136803F00703022B14
S3150FE11DE04FF4004004D005D3042B04D003D301E014
S3150FE11DF0086800E04868D16EC1F30421491CB0FBC5
S3150FE11E00F1F070470548016841F4700101607047D0
S3150FE11E100000000094400E401001002088ED00E024
S3150FE11E20074988421CBF0749884205D006498842BF
S3150FE11E301CBF0649884201D1012070470020704737
S3150FE11E40008001400084014000A0014000A4014050
S3150FE11E502DE9F84304460D46FFF7E2FF2878010026
S3150FE11E6004BF0221616000216162697801B14021FD
S3150FE11E706A7A02B18022AB7A03B12023EE7A06B1F8
S3150FE11E80102695F8049095F805C095F80CE0EF78D3
S3150FE11E9095F80280B9F1000F18BF4FF40059BCF164
S3150FE11EA0000F18BF4FF0805CBEF1000F18BF4FF067
S3150FE11EB0080E3F0447EA0868AF7948EA8728EF79C1
S3150FE11EC02D7A48EA07273D43294311431943314305
S3150FE11ED049EA01014CEA01014EEA0101216008B12B
S3150FE11EE001206060BDE8F1830A0A484000F0FF0077
S3150FE11EF008214308C00746BF034858401846491E04
S3150FE11F00F7D15040704700002083B8ED70B5044615
S3150FE11F100D461046002604E00146A05DFFF7E4FFFB
S3150FE11F20761CAE42F8D370BD10B5044600F02EF91B
S3150FE11F302046BDE81040002100F02BB900F091B921
S3150FE11F40014600F0C5B9F8B505460E4617461C46DB
S3150FE11F5000F00AFB079A0699284600F008FB05F1FF
S3150FE11F6024000021016006750C22394605F139007E
S3150FE11F70FEF7FAFF05F14500210C01708470210A85
S3150FE11F804170F1BD10B584B01C460191029200F18A
S3150FE11F902801009100F1380300F12402214600F0F7
S3150FE11FA02DFB1FBD62F30F2262F31F42401810F0A3
S3150FE11FB0030308D0C91A1FD3DB0748BF00F8012D69
S3150FE11FC028BF20F8022D130030B4144615461039F8
S3150FE11FD028BF20E93C00FAD8490728BF20E90C00C1
S3150FE11FE048BF40F8042D890028BF20F8022D48BFCD
S3150FE11FF000F8012D30BC7047C91818BF00F8012D44
S3150FE12000CB0728BF00F8012D7047FEE706480068A9
S3150FE12010006970470548064A00680168914201D197
S3150FE1202000697047002070472808E10F2800E10F8B
S3150FE12030AD1007B002487047024870470248704733
S3150FE120404A43E00F6A43E00F8642E00F70B50400A2
S3150FE120500D4618BF002DA2B0164600D016B940F2B4
S3150FE12060016023E001211248FFF714FE402111A878
S3150FE12070FEF7B6FFFFF7DEFF014611A800F0B5FD4B
S3150FE12080FFF7DAFF014619A800F0AFFD294601A8CF
S3150FE1209000F0ABFD314609A800F0A7FD01A80090BD
S3150FE120A011AB20222146034800F0AEFD22B070BDF0
S3150FE120B00005080000000F400A46090241EA122115
S3150FE120C04840C0F30311484080EA0030410102065F
S3150FE120D0C9B2D20E41EA0221484080B2704770B5CB
S3150FE120E004460D461046002604E00146A05DFFF7C3
S3150FE120F0E3FF761CAE42F8D370BDFEE710B54A6832
S3150FE121008B68CC680968016002600360046010BDEA
S3150FE1211010B502680368046800680A608C604B605A
S3150FE12120C86010BD38B504460D46FFF7F1FF05F15E
S3150FE1213010012046BDE83440EAE738B504460D46BE
S3150FE12140FFF7DCFF05F110012046FFF7D7FF05F199
S3150FE1215020012046FFF7D2FF05F130012046BDE809
S3150FE121603440CBE710B50C4614F0030188B008D024
S3150FE121706946FFF7D7FF202269462046FEF7F4FEB0
S3150FE1218002E02146FFF7CEFF08B010BD6C21FEF746
S3150FE1219027BF79B9734A0260734A4260734A826014
S3150FE121A0734AC260734A0261734A4261734A82613A
S3150FE121B0734A0EE0734A0260734A4260734A826061
S3150FE121C0734AC260734A0261734A4261734A82611A
S3150FE121D0734AC26181660022026242620020704741
S3150FE121E02DE9F0416F4E90B0044630686E4FDFF83F
S3150FE121F0BC8140F0010030600D466D486D490160CC
S3150FE12200416821F44061416010210163002141637E
S3150FE12210694901656949416538462146FFF76EFF10
S3150FE1222004F110013846FFF769FF15F0030009D0F5
S3150FE12230402229466846FEF797FE69464046FFF774
S3150FE122407CFF03E029464046FFF777FF21463846F4
S3150FE12250FFF768FF306840084000306010B0BDE816
S3150FE12260F0812DE9F041160004460D462ED0206A85
S3150FE1227000F03F073018B042C7F14008206202D2A2
S3150FE12280606A401C6062B7B1464514D3E019424615
S3150FE122902830FEF769FE04F128012046FFF7A0FF7B
S3150FE122A04544A6EB0806002705E029462046FFF739
S3150FE122B097FF4035403E402EF7D23EB13246294692
S3150FE122C0E019BDE8F0412830FEF74EBEBDE8F081DA
S3150FE122D07CB504460D46616A206A324EC90041EA71
S3150FE122E050718DF80310C0000B0C8DF801300A0EFA
S3150FE122F00B0A010E8DF804108DF80700010C8DF80D
S3150FE1230005108DF80020010A8DF802308DF80610C0
S3150FE1231094F820000FF2AC0100F03F00382834BFEB
S3150FE12320C0F13802C0F178022046FFF79AFF082282
S3150FE1233069462046FFF795FF306840F001003060AF
S3150FE1234029461F48FFF70EFF30684008400030600E
S3150FE12350A06E20B1042105F11C00FFF745FC73BD0A
S3150FE123600000000067E6096A85AE67BB72F36E3C53
S3150FE123703AF54FA57F520E518C68059BABD9831F5A
S3150FE1238019CDE05BD89E05C107D57C3617DD7030D8
S3150FE1239039590EF7310BC0FF11155868A78FF9643C
S3150FE123A0A44FFABEB0400E4000010F40A4010F400A
S3150FE123B000000F40040010307081C872070D010054
S3150FE123C030010F4080000000000000000000000017
S3150FE123D00000000000000000000000000000000007
S3150FE123E000000000000000000000000000000000F7
S3150FE123F000000000000000000000000000000000E7
S3150FE124000000000010B54A688B68CC680968016066
S3150FE1241002600360046010BD10B5026803680468CA
S3150FE1242000680A608C604B60C86010BD38B5044621
S3150FE124300D46FFF7E7FF05F110012046BDE83440F1
S3150FE12440E0E71FB5044611F0030008D010226846F5
S3150FE12450FEF78AFD69462046FFF7D4FF1FBD2046EA
S3150FE12460FFF7D0FF1FBD1FB50C4614F0030108D0CF
S3150FE124706946FFF7D1FF102269462046FEF774FD44
S3150FE124801FBD2146FFF7C8FF1FBD80B50168802933
S3150FE1249003D0B1F5807F0FD012E0DFF8442201219E
S3150FE124A011604268DFF83C120A6082680A60C2680E
S3150FE124B00A600069086001E000F026F8002002BD1D
S3150FE124C06FF01F0002BD38B50168DFF81842DFF87B
S3150FE124D01852802903D0B1F5807F0DD011E0DFF8D6
S3150FE124E00022012111604168216081682160C16884
S3150FE124F021600069206001E000F006F8E562002046
S3150FE1250032BD6FF01F0032BDDFF8E021012111600E
S3150FE12510011DDFF8DC0189E72DE9F0470709DFF84F
S3150FE12520D4411020A062089D099E884691469A469D
S3150FE1253014E02EB127B9102249463046FEF714FDB5
S3150FE1254049464046FFF77DFF4FF40070206029466C
S3150FE125505046FFF788FF103509F110093846471E37
S3150FE125600028E6D1BDE8F0872421FEF739BD80B515
S3150FE12570802A18BFB2F5807F00D0A1E7FFE740F8C8
S3150FE12580042BD208FEF7F0FC002002BD2DE9F8433B
S3150FE12590DFF86461DFF86471DFF8649180463068D3
S3150FE125A040F00100306014460020386078603863EF
S3150FE125B001291D46786309D100F01DF84046FFF762
S3150FE125C064FF5FEA00080FD1052008E04046FFF7F8
S3150FE125D07AFF5FEA000807D100F00DF80620B86030
S3150FE125E029464846FFF73FFF306840084000306014
S3150FE125F04046BDE8F2832146484622E72DE9F04FF2
S3150FE1260083B08946DDF834A00E9C19F00F0F804692
S3150FE1261015461E4604D1002D1CBF2868002828D078
S3150FE126202F68DDF830B01DE097B95B4632460121E0
S3150FE126304046FFF7ABFF10203118321811F8011C95
S3150FE12640491C02F8011CC9B211B9401E0128F3DA7F
S3150FE126501AF8010B1BF80710484004F8010B781C18
S3150FE1266000F00F075FEA0900A0F10109DCD12F6045
S3150FE1267032E0214D214F286840F00100286000200B
S3150FE1268038607860386378634046FFF7FEFE5FEAAD
S3150FE1269000081CD11249DFF86CB04FF440400860D6
S3150FE126A01249086031465846FFF7CBFE1748144BDF
S3150FE126B015493865524651207865002001900094FE
S3150FE126C04846FFF729FF31465846FFF7CCFE286803
S3150FE126D04008400028604046BDE8FE8F000000003C
S3150FE126E000000F4424000F40058C010000000F4647
S3150FE126F010010F4008000F40B0400E4000000F40A0
S3150FE1270080000F4084000F4088000F4048054603C4
S3150FE1271010B54A688B68CC6809680160026003608E
S3150FE12720046010BD10B502680368046800680A60AA
S3150FE127308C604B60C86010BD38B504460D46FFF797
S3150FE12740E7FF05F110012046BDE83440E0E738B573
S3150FE1275004460D46FFF7E6FF05F110012046BDE8F9
S3150FE127603440DFE78C220FF2D06150430844007A00
S3150FE1277070478C220FF2C06150430844407A70478C
S3150FE1278010B500F010F8BDE8104000F10C0106E0BD
S3150FE1279010B500F008F8BDE8104000F12C01202239
S3150FE127A01846FEF7E1BB0B468C240FF28C616043B2
S3150FE127B00844704738B504464FF48470154600F067
S3150FE127C03EF94FF48670294600F039F9DFF8CC056A
S3150FE127D02065012060656069000E00F0010080F060
S3150FE127E0010032BD2DE9F04700F0EFF888B09146D0
S3150FE127F09A4608F1400100F0E6F84FF48670251885
S3150FE12800494600F0DBF84FF48870261809F12001EC
S3150FE128103046FFF791FFDFF888052065414600F066
S3150FE12820DCF900F0CDF84FF4847004EB000908F100
S3150FE1283020014846FFF780FF08F140013046FFF7D8
S3150FE128407BFFDFF8600520650AF14001DFF85805E7
S3150FE1285060650120A0654FF4807026183046FFF7BA
S3150FE1286076FF69464846FFF772FF00F0A6F8DFF8F4
S3150FE128703C05206508F12001DFF834056065DFF8D6
S3150FE12880340500F09DF8DFF8300520655146DFF895
S3150FE128902C0560650120A0654846FFF758FF69469C
S3150FE128A03846FFF749FFDFF8180520650AF12001E1
S3150FE128B0DFF8100560650120A0653046FFF747FF99
S3150FE128C008B0BDE8F0872DE9F04700F07EF898B043
S3150FE128D0914608F1200100F076F8DFF8C40420658F
S3150FE128E008A9DFF8E4046065DFF8E004A06500F00D
S3150FE128F09BFA00F062F8DFF8D804206510A9DFF83B
S3150FE12900D40460654FF48670A06526183046FFF74C
S3150FE129101EFF694600F08BFA08F1400100F053F80B
S3150FE12920DFF8B40420654146012060654FF48470F9
S3150FE1293004EB000A00F07EFADFF8A0042065694691
S3150FE12940DFF89C046065DFF89C04A0650120E06573
S3150FE129505046FFF7F1FE10A93046FFF7EDFEDFF81F
S3150FE12960880420654946DFF884046065DFF8800452
S3150FE12970A0654FF488702044FFF7E9FE08F12001C6
S3150FE1298000F021F808F1400100F054FA08A93046A9
S3150FE12990FFF7D2FEDFF85C04206509F14001DFF8AD
S3150FE129A0580460652846FFF7D2FE09F1200130464B
S3150FE129B0FFF7CDFE18B0BDE8F08741462846BBE6E6
S3150FE129C0A0650120E0653846B6E604464FF482700D
S3150FE129D0884627187047F8B504460E461D46174632
S3150FE129E020212846FEF7FCFA0120286039464FF4EC
S3150FE129F0807000F024F84FF48270314600F01FF832
S3150FE12A004FF48470261829463046FFF795FEDFF816
S3150FE12A10EC0320650BE0DFF8E8032065DFF8E4035C
S3150FE12A206065DFF8E403A065DFF8E003E065606960
S3150FE12A30C001F0D529463046BDE8F44087E620448B
S3150FE12A407AE650F8043B934203D007E050F8042BA3
S3150FE12A5022B9091F0129F9DA0120704700207047D1
S3150FE12A602DE9F04188B004460E46154698462021D9
S3150FE12A706846FEF7B5FA0120009020210E9F3846F1
S3150FE12A80FEF7AEFA202107F12000FEF7A9FA202181
S3150FE12A9007F14000FEF7A4FA3046FFF763FE00F0B8
S3150FE12AA0A0F800F095F88C210FF28C3011FB06F1AE
S3150FE12AB008444068461E00E0761E012E16DB00F044
S3150FE12AC03EF8F9D512E0202229463846FEF75CFAA0
S3150FE12AD0202205F1200107F12000FEF755FA202209
S3150FE12AE0694607F14000FEF74FFA761E002E23D412
S3150FE12AF03A4639462046FFF7E6FE00F020F8F4D5D0
S3150FE12B00002220213846FFF79CFF70B100222021D9
S3150FE12B1007F12000FFF795FF38B10022202107F1D9
S3150FE12B204000FFF78EFF0028CDD13B462A463946B6
S3150FE12B302046FFF757FED8E708B0BDE8F081301120
S3150FE12B4006EBD060401158F82010A6EB4010C140BB
S3150FE12B50C8077047F0B504460F4691B015461E46B5
S3150FE12B603846FFF7FFFD00F03CF800F031F8694613
S3150FE12B703846FFF705FE08AB6A4605F140012046E8
S3150FE12B80FFF729FF4FF4827008A92044FFF7D4FD20
S3150FE12B904FF4867027182946FFF715FF4FF4887013
S3150FE12BA005F12001FFF74BFF7D48206506F1200176
S3150FE12BB000F013F8A0650120E0654FF48070204422
S3150FE12BC0FFF7C5FD31463846FFF7C1FD11B0F0BD40
S3150FE12BD0002020602063606370478D4860658D48F3
S3150FE12BE070470146204600F06DB938B50D460446EB
S3150FE12BF02021FEF7F5F9FFE71F204242295C224427
S3150FE12C00401ED177F9D531BD2DE9F0470F00984632
S3150FE12C1018BFB8F1000FBAB00446154603D0429E6D
S3150FE12C200EB1012D02DA40F20160B4E0FFF7D0FFF9
S3150FE12C30606840F0100060600020FFF79AFDFFF733
S3150FE12C40D0FF606820F4406040F40060606009A93D
S3150FE12C50606820F4407040F4007060600020FFF778
S3150FE12C6097FD09AA31462046FFF7A4FD30B909AA17
S3150FE12C7006F120012046FFF79DFD10B140F20260FB
S3150FE12C8089E0212DA8BF2025202111A8FEF7A8F95B
S3150FE12C90002014E02A1A521E01A99208A5F1010C8F
S3150FE12CA001EB8201ACEB000C3B5C0A6C4FEACC0CFE
S3150FE12CB00CF0180C03FA0CF31A430A64401CA842F1
S3150FE12CC0E8DB4FF48470271811A93846FFF734FD76
S3150FE12CD05148206511A900F0A7F819AB09AA06F129
S3150FE12CE020012046FFF777FE4FF4827019A92044A1
S3150FE12CF0FFF722FD4FF4887004EB000911A948464E
S3150FE12D00FFF71AFD4FF4867004EB000A00F091F815
S3150FE12D104248206511A9424860654846FFF717FD0D
S3150FE12D2019A900F084F821A8009011AB0FF2541203
S3150FE12D3000212046FFF794FE01A8009019AB424609
S3150FE12D4000212046FFF78CFE21AB21AA0021204668
S3150FE12D50FFF700FF01AB21AA01A92046FFF742FDCC
S3150FE12D6001AB01AA00212046FFF7F4FE0020FFF791
S3150FE12D7000FDFFF736FF01A93846FFF7DDFC00F04E
S3150FE12D8058F828482065214860656069C0014CBF45
S3150FE12D90002040F204603AB0BDE8F0873035DA1032
S3150FE12DA08AD11C81D01482CB1481E11C8CE11C8168
S3150FE12DB01C84D91C8391D11CE014D8141482E11C14
S3150FE12DC084D31482D11CE014821CC00C0C0C0100BC
S3150FE12DD0C00C0C83D91C83D88AD11C83DA0C8114DD
S3150FE12DE082D11C81C80C0C818CE11CD01484E314B4
S3150FE12DF082D11C01D81483D11CC00C01393984014D
S3150FE12E00D02484FC1C82FED88B1C81A039380100AA
S3150FE12E10D91C83D11C81E11C30D00C0130E11C841B
S3150FE12E2030D91C013035DA144FF480702518284655
S3150FE12E308DE4314650467FE420000000000100009A
S3150FE12E40050C0000FFFFFFFFFFFFFFFFFFFFFFFF87
S3150FE12E50000000000000000000000000010000007B
S3150FE12E60FFFFFFFF512563FCC2CAB9F3849E17A783
S3150FE12E70ADFAE6BCFFFFFFFFFFFFFFFF000000001B
S3150FE12E80FFFFFFFF96C298D84539A1F4A033EB2D8A
S3150FE12E90817D0377F240A463E5E6BCF847422CE176
S3150FE12EA0F2D1176BF551BF376840B6CBCE5E316BBA
S3150FE12EB05733CE2B169E0F7C4AEBE78E9B7F1AFE7E
S3150FE12EC0E242E34F42685209042941EA421209D923
S3150FE12ED0491F022908D9C91E032903D9091F022946
S3150FE12EE002D970474260704742F010014160704766
S3150FE12EF038B5174C206840F0080020600123042202
S3150FE12F0000F02AF8002001E00098401C009000989C
S3150FE12F106428F9DB0123022200F01EF8002001E00C
S3150FE12F200098401C00900098B0F5FA7FF8DB09484D
S3150FE12F300068012814BF012500250123002200F0B6
S3150FE12F400BF8206820F008002060284632BD00000B
S3150FE12F50B0400E409821144206210520FEF7E6BE49
S3150FE12F604FF40170FEF750FE00BF44484449006834
S3150FE12F700860444944480068000E08D14AF6E85211
S3150FE12F80CA624A6B42F004024A630022CA6202280D
S3150FE12F9003DA086840F4005008603C48016821F400
S3150FE12FA0401141F4881101603948016841F480719B
S3150FE12FB0016040213748C16001684903FCD4002014
S3150FE12FC0C046FEF71CFEFDF77BFCFDF77BFC88B9DF
S3150FE12FD0FDF79EFC0446C046C04640F201205CB1B7
S3150FE12FE040F205718C420EBF40F2032040F20371AD
S3150FE12FF08C4201D04FF40170FEF706FE00BF0000D0
S3150FE1300038B52548016801240125B1F5803F08BF90
S3150FE13010002512D0006840050AD5FEF717FE40F2EB
S3150FE130200221401A07D0C01E05D0C01E012802D9C1
S3150FE13030FFF75EFF08B1002400250420006810F1B8
S3150FE13040010F06D1BDE832404FF40270FEF7D0BD55
S3150FE1305031BD25B1002000F07DF80400F2D0002C3F
S3150FE13060F6D00E490020086000221046016881F370
S3150FE13070088881F3098840688746FEE71401002036
S3150FE130801801002064310E40FC81E00F20400E4014
S3150FE1309000000E4004300E4004500E4008ED00E0F3
S3150FE130A02DE9F041044666480068884601691646EF
S3150FE130B08C4222BF37194069B84216D3E00AB4EB06
S3150FE130C0C02004BF204600F0EFF804F50060C50A02
S3150FE130D0ED0204E0284600F0E7F805F50065BD428C
S3150FE130E0F8D332464146204630E0BDE8F0812DE97E
S3150FE130F0F04188465349544B096815460A689A4286
S3150FE1310022D1096946184E4909684A69AF19BA4287
S3150FE131101AD310B9086900F0C7F8F00AB6EBC02068
S3150FE1312004BF304600F0C0F806F50060C40AE402B9
S3150FE1313004E0204600F0B8F804F50064BC42F8D389
S3150FE131402A464146304601E0BDE8F081BDE8F0414F
S3150FE1315000F0D4B87FB5044668460FF20411102289
S3150FE13160FDF712FF22686068616B02F16042B2F50A
S3150FE13170802F2AD8324D2A681269904225D3334BD4
S3150FE13180984222D202F1400081420E4601D3994282
S3150FE1319005D30020C046401E8041C00F1CE0002031
S3150FE131A0C046A0B900F056F8A8B9706998B10228DF
S3150FE131B00DD12868B1690069091D4FF0FF32091A6F
S3150FE131C0FEF7A4FE2249884205D0002004E02046FE
S3150FE131D000F004F800E0012004B070BD50B59FB0D7
S3150FE131E0044668460FF288011022FDF7CDFE666BA5
S3150FE131F000F030F818B97069012808D1B66910489E
S3150FE1320000680069864202D3B6F5801F01D9002016
S3150FE1321013E004A8FEF788FE321B214604A8FEF749
S3150FE132208DFE04A8FEF78CFE06F12002314604A8B6
S3150FE13230FEF70CFF401E8041C00F1FB050BD0000CE
S3150FE132402808E10F2800E10FAD1007B001001000CB
S3150FE13250E320BBDE10226946304600F085B8000058
S3150FE1326013B779FAC925DDB7ADF3CFE0F1B614B8E7
S3150FE1327013B779FAC925DDB7ADF3CFE0F1B614B8D7
S3150FE13280084841F6713181630168490849000160D7
S3150FE1329070470448016849084900016000218163CC
S3150FE132A07047000008000E4010B50446FFF7E8FF2F
S3150FE132B0204600F016F90446FFF7EBFF601E80414A
S3150FE132C0C00F10BD10B58408800782B005D508047C
S3150FE132D040F47F4040F0FF0003E041F07F4040F4CF
S3150FE132E07F000090FFF7CCFF04226946A00000F0B3
S3150FE132F031F90446FFF7CDFF204616BD2DE9F04122
S3150FE1330004460E46154604F0010005F00101084397
S3150FE1331027D125B3A00708D536F8021B2046FFF7BC
S3150FE13320D1FFF0B9A41CAD1E19D0AF08FFF7A8FF66
S3150FE13330BF003A463146204600F00CF98046FFF7CA
S3150FE13340A8FF3C197808B8F1000F06EB400608D143
S3150FE13350E81B04D031882046FFF7B4FF08B90120F6
S3150FE1336000E00020BDE8F0810300002013F0030F19
S3150FE1337009D0521E22BF13F8010B11F801CBB0EBA6
S3150FE133800C00F3D07047121F22BF53F8040B51F80C
S3150FE1339004CB6045F7D0121D0AD200BA9CFA8CFC19
S3150FE133A0B0EB0C0038BF6FF0000088BF012070470B
S3150FE133B0521E22BF13F8010B11F801CBB0EB0C0033
S3150FE133C0F6D0521C08BF10467047FEE76449654ABE
S3150FE133D001E021B1491E1369DB07FAD401B9B0E067
S3150FE133E0506001201060106910F0060F05D04107FB
S3150FE133F000D5A9E0800700D5A9E000207047F0B518
S3150FE1340013460022002936D0554C564D8BB98B42C7
S3150FE1341031D250F8046BEE605B1C08262E6026460F
S3150FE1342001E036B3761E2F69FF07FAD4002EEED1EF
S3150FE134301FE0EFF3108672B600230EE02F6907F057
S3150FE134401907102F08BF2F602F693F07F6D550F8E0
S3150FE13450047BEF605B1C10272F608B42F4D306B918
S3150FE1346062B6264601E026B1761E2869C007FAD470
S3150FE134700EB96FF002021046F0BD2DE9F0479A46FC
S3150FE13480354B364F1C681B683B688046002043F07E
S3150FE1349001033B60950881460C4602E0B14404EB1B
S3150FE134A08604A94517D208EB89063046FFF78EFF4A
S3150FE134B0010014D1C6F30A00C0F500608608A5EB3A
S3150FE134C00900B04238BF0646524631462046FFF75D
S3150FE134D096FF0100E2D03968490849003960BDE835
S3150FE134E0F0871D491E4A0B6809681C490B6843F0B2
S3150FE134F001030B608860012048604869400704D5E5
S3150FE1350008684008400008601EE04869800704D556
S3150FE13510086840084000086019E00220486001E0B1
S3150FE1352022B1521E4869C007FAD422B90868400889
S3150FE135304000086005E00868400840000860002088
S3150FE1354070476FF0020070474FF0FF3070476FF032
S3150FE1355001007047002390E704300E4008000E404B
S3150FE13560809698000C000E404EF68851CEF200017F
S3150FE13570086840F470000860BFF34F8FBFF36F8F99
S3150FE135804FF00070E1EE100A7047FEE70120C046EA
S3150FE13590002801D000F008F80020AFF30080FFF714
S3150FE135A0E4FC00F015F8000010B50749794418312D
S3150FE135B0064C7C44163404E00A68081D114488471A
S3150FE135C00146A142F8D110BD300100004C010000C7
S3150FE135D000F000B80746384600F002F8FBE70000B6
S3150FE135E02021090326311820ABBEF9E700207047E9
S3150FE135F00020704780B5FEF705FCFFF701FDBDE83A
S3150FE13600014000F000B8AFF30080FFF7ADFFFFF721
S3150FE13610BDFF10B5B1F5C07F044602D240F20520D9
S3150FE1362010BD4FF4C071FDF7DBFC4FF48270221829
S3150FE1363004F1BC0104F12400BDE81040FDF738BEEA
S3150FE1364010B582B00446009104F124002146FDF73E
S3150FE1365077FE00281CBF41F207018842C4F87C01BE
S3150FE136600CD1A01C017839B1407810B140F203209A
S3150FE1367016BD40F2022016BD40F2012016BD19E03B
S3150FE1368050F8041BCB0744BFA9F101035918121FC8
S3150FE136900023042A41F8043BF9D25FEA827C0B4608
S3150FE136A004D54FF0000CA1F800C09B1CD10744BF15
S3150FE136B00021197050F8042B002AE1D1704730B57B
S3150FE136C0016842688468014401EB5203D20748BF9F
S3150FE136D04C44994201D10C3030BD11F9012B11F84F
S3150FE136E0015B002A04F8015B02D5521CF9D1F0E720
S3150FE136F0521EF4D5EDE7000087FFFFFF1002000031
S3150FE137002011002000000000B7FFFFFF0C000000B2
S3150FE137103C0000008000002081000C00F07F10309B
S3150FE137208000002034000140FB000AF04902C0EAA4
S3110FE137302101C0EA2101000000000000A9
S7050FE13607CD
